{
  "contractName": "EventTicket",
  "abi": [
    {
      "constant": true,
      "inputs": [],
      "name": "name",
      "outputs": [
        {
          "name": "",
          "type": "string"
        }
      ],
      "payable": false,
      "stateMutability": "view",
      "type": "function"
    },
    {
      "constant": true,
      "inputs": [],
      "name": "totalSupply",
      "outputs": [
        {
          "name": "",
          "type": "uint16"
        }
      ],
      "payable": false,
      "stateMutability": "view",
      "type": "function"
    },
    {
      "constant": true,
      "inputs": [],
      "name": "availableTickets",
      "outputs": [
        {
          "name": "",
          "type": "uint16"
        }
      ],
      "payable": false,
      "stateMutability": "view",
      "type": "function"
    },
    {
      "constant": true,
      "inputs": [
        {
          "name": "",
          "type": "bytes32"
        }
      ],
      "name": "claimedTickets",
      "outputs": [
        {
          "name": "",
          "type": "bool"
        }
      ],
      "payable": false,
      "stateMutability": "view",
      "type": "function"
    },
    {
      "inputs": [
        {
          "name": "initialSupply",
          "type": "uint16"
        },
        {
          "name": "ticketName",
          "type": "string"
        }
      ],
      "payable": false,
      "stateMutability": "nonpayable",
      "type": "constructor"
    },
    {
      "anonymous": false,
      "inputs": [
        {
          "indexed": false,
          "name": "eh",
          "type": "bytes32"
        }
      ],
      "name": "TicketClaimed",
      "type": "event"
    },
    {
      "anonymous": false,
      "inputs": [
        {
          "indexed": false,
          "name": "eh",
          "type": "bytes32"
        }
      ],
      "name": "TicketFreed",
      "type": "event"
    },
    {
      "anonymous": false,
      "inputs": [],
      "name": "NoMoreTickets",
      "type": "event"
    },
    {
      "constant": false,
      "inputs": [
        {
          "name": "eh",
          "type": "bytes32"
        }
      ],
      "name": "claimTicket",
      "outputs": [],
      "payable": false,
      "stateMutability": "nonpayable",
      "type": "function"
    },
    {
      "constant": true,
      "inputs": [
        {
          "name": "eh",
          "type": "bytes32"
        }
      ],
      "name": "checkTicket",
      "outputs": [
        {
          "name": "",
          "type": "bool"
        }
      ],
      "payable": false,
      "stateMutability": "view",
      "type": "function"
    },
    {
      "constant": false,
      "inputs": [
        {
          "name": "eh",
          "type": "bytes32"
        }
      ],
      "name": "freeTicket",
      "outputs": [],
      "payable": false,
      "stateMutability": "nonpayable",
      "type": "function"
    }
  ],
  "bytecode": "0x608060405234801561001057600080fd5b50604051610777380380610777833981018060405281019080805190602001909291908051820192919050505081600160026101000a81548161ffff021916908361ffff16021790555080600290805190602001906100709291906100a5565b50600160029054906101000a900461ffff16600160006101000a81548161ffff021916908361ffff160217905550505061014a565b828054600181600116156101000203166002900490600052602060002090601f016020900481019282601f106100e657805160ff1916838001178555610114565b82800160010185558215610114579182015b828111156101135782518255916020019190600101906100f8565b5b5090506101219190610125565b5090565b61014791905b8082111561014357600081600090555060010161012b565b5090565b90565b61061e806101596000396000f300608060405260043610610083576000357c0100000000000000000000000000000000000000000000000000000000900463ffffffff16806306fdde031461008857806318160ddd146101185780633cfa7e011461014b57806360f67b571461017e578063636f3483146101c7578063ba91f717146101f8578063ed9d4ce714610241575b600080fd5b34801561009457600080fd5b5061009d610272565b6040518080602001828103825283818151815260200191508051906020019080838360005b838110156100dd5780820151818401526020810190506100c2565b50505050905090810190601f16801561010a5780820380516001836020036101000a031916815260200191505b509250505060405180910390f35b34801561012457600080fd5b5061012d610310565b604051808261ffff1661ffff16815260200191505060405180910390f35b34801561015757600080fd5b50610160610324565b604051808261ffff1661ffff16815260200191505060405180910390f35b34801561018a57600080fd5b506101ad6004803603810190808035600019169060200190929190505050610338565b604051808215151515815260200191505060405180910390f35b3480156101d357600080fd5b506101f66004803603810190808035600019169060200190929190505050610358565b005b34801561020457600080fd5b50610227600480360381019080803560001916906020019092919050505061046f565b604051808215151515815260200191505060405180910390f35b34801561024d57600080fd5b5061027060048036038101908080356000191690602001909291905050506104a0565b005b60028054600181600116156101000203166002900480601f0160208091040260200160405190810160405280929190818152602001828054600181600116156101000203166002900480156103085780601f106102dd57610100808354040283529160200191610308565b820191906000526020600020905b8154815290600101906020018083116102eb57829003601f168201915b505050505081565b600160029054906101000a900461ffff1681565b600160009054906101000a900461ffff1681565b60006020528060005260406000206000915054906101000a900460ff1681565b60011515600080836000191660001916815260200190815260200160002060009054906101000a900460ff16151514151561039257600080fd5b6000806000836000191660001916815260200190815260200160002060006101000a81548160ff0219169083151502179055507fa1c591661dcc83e808acb2048e0c355d3b074f83d75eb0468d50d1bebee9b6288160405180826000191660001916815260200191505060405180910390a16001600081819054906101000a900461ffff168092919060010191906101000a81548161ffff021916908361ffff160217905550506000806000836000191660001916815260200190815260200160002060006101000a81548160ff02191690831515021790555050565b6000806000836000191660001916815260200190815260200160002060009054906101000a900460ff169050919050565b60001515600080836000191660001916815260200190815260200160002060009054906101000a900460ff1615151415156104da57600080fd5b6000600160009054906101000a900461ffff1661ffff161115156104fd57600080fd5b6001600081819054906101000a900461ffff16809291906001900391906101000a81548161ffff021916908361ffff160217905550506000600160009054906101000a900461ffff1661ffff16141561057d577ff04cbd4ac0765eee53b54a9c979903c1f995fc834d1ec4461774b93faa51665460405160405180910390a15b6001600080836000191660001916815260200190815260200160002060006101000a81548160ff0219169083151502179055507fdd4735862e2d97db7309e1a3511813dbe4b9358159883baee880cd68b0b32d058160405180826000191660001916815260200191505060405180910390a1505600a165627a7a72305820a647dba51b6ea88124a7a36a45a68363a3102cc435ef13659e3049de439fb4340029",
  "source": "pragma solidity ^0.4.18;\ncontract EventTicket {\n    mapping(bytes32 => bool) public claimedTickets;\n    uint16 public availableTickets;\n    uint16 public totalSupply;\n    string public name;\n    constructor(uint16 initialSupply, string ticketName) public {\n        totalSupply = initialSupply;\n        name = ticketName;\n        availableTickets = totalSupply;\n    }\n    function claimTicket(bytes32 eh) public {\n        require(claimedTickets[eh] == false);\n        require(availableTickets > 0);\n        availableTickets--;\n        if(availableTickets == 0){\n            emit NoMoreTickets();\n        }\n        claimedTickets[eh] = true;\n        emit TicketClaimed(eh);\n    }\n    function checkTicket(bytes32 eh) public view returns (bool) {\n        return claimedTickets[eh];\n    }\n    function freeTicket(bytes32 eh) public {\n        require(claimedTickets[eh] == true);\n        claimedTickets[eh] = false;\n        emit TicketFreed(eh);\n        availableTickets++;\n        claimedTickets[eh] = false;\n    }\n\n    event TicketClaimed(bytes32 eh);\n    event TicketFreed(bytes32 eh);\n    event NoMoreTickets();\n}\n",
  "sourcePath": "/home/mariorodriguez/Beeva/poc-truffle/EventTicket/contracts/EventTicket.sol",
  "compiler": {
    "name": "solc",
    "version": "0.4.23+commit.124ca40d.Emscripten.clang"
  },
  "schemaVersion": "2.0.0",
  "updatedAt": "2018-04-26T14:32:33.872Z"
}