{
  "contractName": "EventTicket",
  "abi": [
    {
      "constant": true,
      "inputs": [],
      "name": "name",
      "outputs": [
        {
          "name": "",
          "type": "string"
        }
      ],
      "payable": false,
      "stateMutability": "view",
      "type": "function"
    },
    {
      "constant": true,
      "inputs": [],
      "name": "totalSupply",
      "outputs": [
        {
          "name": "",
          "type": "uint16"
        }
      ],
      "payable": false,
      "stateMutability": "view",
      "type": "function"
    },
    {
      "constant": true,
      "inputs": [],
      "name": "freeTickets",
      "outputs": [
        {
          "name": "",
          "type": "uint16"
        }
      ],
      "payable": false,
      "stateMutability": "view",
      "type": "function"
    },
    {
      "constant": true,
      "inputs": [
        {
          "name": "",
          "type": "bytes32"
        }
      ],
      "name": "claimedTickets",
      "outputs": [
        {
          "name": "",
          "type": "bool"
        }
      ],
      "payable": false,
      "stateMutability": "view",
      "type": "function"
    },
    {
      "inputs": [
        {
          "name": "initialSupply",
          "type": "uint16"
        },
        {
          "name": "ticketName",
          "type": "string"
        }
      ],
      "payable": false,
      "stateMutability": "nonpayable",
      "type": "constructor"
    },
    {
      "anonymous": false,
      "inputs": [
        {
          "indexed": false,
          "name": "eh",
          "type": "bytes32"
        }
      ],
      "name": "TicketClaimed",
      "type": "event"
    },
    {
      "anonymous": false,
      "inputs": [],
      "name": "NoMoreTickets",
      "type": "event"
    },
    {
      "constant": false,
      "inputs": [
        {
          "name": "eh",
          "type": "bytes32"
        }
      ],
      "name": "claimTicket",
      "outputs": [],
      "payable": false,
      "stateMutability": "nonpayable",
      "type": "function"
    },
    {
      "constant": true,
      "inputs": [
        {
          "name": "eh",
          "type": "bytes32"
        }
      ],
      "name": "checkTicket",
      "outputs": [
        {
          "name": "",
          "type": "bool"
        }
      ],
      "payable": false,
      "stateMutability": "view",
      "type": "function"
    }
  ],
  "bytecode": "0x608060405234801561001057600080fd5b50604051610624380380610624833981018060405281019080805190602001909291908051820192919050505081600160026101000a81548161ffff021916908361ffff160217905550600160029054906101000a900461ffff16600160006101000a81548161ffff021916908361ffff160217905550806002908051906020019061009d9291906100a5565b50505061014a565b828054600181600116156101000203166002900490600052602060002090601f016020900481019282601f106100e657805160ff1916838001178555610114565b82800160010185558215610114579182015b828111156101135782518255916020019190600101906100f8565b5b5090506101219190610125565b5090565b61014791905b8082111561014357600081600090555060010161012b565b5090565b90565b6104cb806101596000396000f300608060405260043610610078576000357c0100000000000000000000000000000000000000000000000000000000900463ffffffff16806306fdde031461007d57806318160ddd1461010d5780635aaa8be81461014057806360f67b5714610173578063ba91f717146101bc578063ed9d4ce714610205575b600080fd5b34801561008957600080fd5b50610092610236565b6040518080602001828103825283818151815260200191508051906020019080838360005b838110156100d25780820151818401526020810190506100b7565b50505050905090810190601f1680156100ff5780820380516001836020036101000a031916815260200191505b509250505060405180910390f35b34801561011957600080fd5b506101226102d4565b604051808261ffff1661ffff16815260200191505060405180910390f35b34801561014c57600080fd5b506101556102e8565b604051808261ffff1661ffff16815260200191505060405180910390f35b34801561017f57600080fd5b506101a260048036038101908080356000191690602001909291905050506102fc565b604051808215151515815260200191505060405180910390f35b3480156101c857600080fd5b506101eb600480360381019080803560001916906020019092919050505061031c565b604051808215151515815260200191505060405180910390f35b34801561021157600080fd5b50610234600480360381019080803560001916906020019092919050505061034d565b005b60028054600181600116156101000203166002900480601f0160208091040260200160405190810160405280929190818152602001828054600181600116156101000203166002900480156102cc5780601f106102a1576101008083540402835291602001916102cc565b820191906000526020600020905b8154815290600101906020018083116102af57829003601f168201915b505050505081565b600160029054906101000a900461ffff1681565b600160009054906101000a900461ffff1681565b60006020528060005260406000206000915054906101000a900460ff1681565b6000806000836000191660001916815260200190815260200160002060009054906101000a900460ff169050919050565b60001515600080836000191660001916815260200190815260200160002060009054906101000a900460ff16151514151561038757600080fd5b6000600160009054906101000a900461ffff1661ffff161115156103aa57600080fd5b6001600081819054906101000a900461ffff16809291906001900391906101000a81548161ffff021916908361ffff160217905550506000600160009054906101000a900461ffff1661ffff16141561042a577ff04cbd4ac0765eee53b54a9c979903c1f995fc834d1ec4461774b93faa51665460405160405180910390a15b6001600080836000191660001916815260200190815260200160002060006101000a81548160ff0219169083151502179055507fdd4735862e2d97db7309e1a3511813dbe4b9358159883baee880cd68b0b32d058160405180826000191660001916815260200191505060405180910390a1505600a165627a7a723058209c5c11d871f680eb151c699902b68a615c9ee8e5b0a1108a28c1724b49e8fa7f0029",
  "source": "pragma solidity ^0.4.18;\ncontract EventTicket {\n    mapping(bytes32 => bool) public claimedTickets;\n    uint16 public freeTickets;\n    uint16 public totalSupply;\n    string public name;\n    constructor(uint16 initialSupply, string ticketName) public {\n        totalSupply = initialSupply;\n        freeTickets = totalSupply;\n        name = ticketName;\n    }\n    function claimTicket(bytes32 eh) public {\n        require(claimedTickets[eh] == false);\n        require(freeTickets > 0);\n        freeTickets--;\n        if(freeTickets == 0){\n            emit NoMoreTickets();\n        }\n        claimedTickets[eh] = true;\n        emit TicketClaimed(eh);\n    }\n    function checkTicket(bytes32 eh) public view returns (bool) {\n        return claimedTickets[eh];\n    }\n\n    event TicketClaimed(bytes32 eh);\n    event NoMoreTickets();\n}\n",
  "sourcePath": "/home/mariorodriguez/Beeva/poc-truffle/EventTicket/contracts/EventTicket.sol",
  "compiler": {
    "name": "solc",
    "version": "0.4.23+commit.124ca40d.Emscripten.clang"
  },
  "schemaVersion": "2.0.0",
  "updatedAt": "2018-04-26T07:12:07.359Z"
}